{
  "_format": "hh-sol-artifact-1",
  "contractName": "CarMarketplace",
  "sourceName": "contracts/carContract.sol",
  "abi": [
    {
      "anonymous": false,
      "inputs": [
        {
          "indexed": true,
          "internalType": "uint256",
          "name": "id",
          "type": "uint256"
        },
        {
          "indexed": false,
          "internalType": "string",
          "name": "make",
          "type": "string"
        },
        {
          "indexed": false,
          "internalType": "string",
          "name": "model",
          "type": "string"
        },
        {
          "indexed": false,
          "internalType": "uint256",
          "name": "price",
          "type": "uint256"
        },
        {
          "indexed": false,
          "internalType": "string",
          "name": "imageUrl",
          "type": "string"
        },
        {
          "indexed": true,
          "internalType": "address",
          "name": "seller",
          "type": "address"
        }
      ],
      "name": "CarListed",
      "type": "event"
    },
    {
      "anonymous": false,
      "inputs": [
        {
          "indexed": true,
          "internalType": "uint256",
          "name": "id",
          "type": "uint256"
        },
        {
          "indexed": true,
          "internalType": "address",
          "name": "buyer",
          "type": "address"
        },
        {
          "indexed": false,
          "internalType": "address",
          "name": "seller",
          "type": "address"
        },
        {
          "indexed": false,
          "internalType": "uint256",
          "name": "price",
          "type": "uint256"
        }
      ],
      "name": "CarSold",
      "type": "event"
    },
    {
      "inputs": [
        {
          "internalType": "uint256",
          "name": "_carId",
          "type": "uint256"
        }
      ],
      "name": "buyCar",
      "outputs": [],
      "stateMutability": "payable",
      "type": "function"
    },
    {
      "inputs": [],
      "name": "carCount",
      "outputs": [
        {
          "internalType": "uint256",
          "name": "",
          "type": "uint256"
        }
      ],
      "stateMutability": "view",
      "type": "function"
    },
    {
      "inputs": [
        {
          "internalType": "uint256",
          "name": "",
          "type": "uint256"
        }
      ],
      "name": "cars",
      "outputs": [
        {
          "internalType": "uint256",
          "name": "id",
          "type": "uint256"
        },
        {
          "internalType": "string",
          "name": "make",
          "type": "string"
        },
        {
          "internalType": "string",
          "name": "model",
          "type": "string"
        },
        {
          "internalType": "uint256",
          "name": "year",
          "type": "uint256"
        },
        {
          "internalType": "uint256",
          "name": "price",
          "type": "uint256"
        },
        {
          "internalType": "string",
          "name": "imageUrl",
          "type": "string"
        },
        {
          "internalType": "address payable",
          "name": "seller",
          "type": "address"
        },
        {
          "internalType": "address",
          "name": "buyer",
          "type": "address"
        },
        {
          "internalType": "bool",
          "name": "sold",
          "type": "bool"
        }
      ],
      "stateMutability": "view",
      "type": "function"
    },
    {
      "inputs": [
        {
          "internalType": "bool",
          "name": "_sold",
          "type": "bool"
        }
      ],
      "name": "getCarsByStatus",
      "outputs": [
        {
          "components": [
            {
              "internalType": "uint256",
              "name": "id",
              "type": "uint256"
            },
            {
              "internalType": "string",
              "name": "make",
              "type": "string"
            },
            {
              "internalType": "string",
              "name": "model",
              "type": "string"
            },
            {
              "internalType": "uint256",
              "name": "year",
              "type": "uint256"
            },
            {
              "internalType": "uint256",
              "name": "price",
              "type": "uint256"
            },
            {
              "internalType": "string",
              "name": "imageUrl",
              "type": "string"
            },
            {
              "internalType": "address payable",
              "name": "seller",
              "type": "address"
            },
            {
              "internalType": "address",
              "name": "buyer",
              "type": "address"
            },
            {
              "internalType": "bool",
              "name": "sold",
              "type": "bool"
            }
          ],
          "internalType": "struct CarMarketplace.Car[]",
          "name": "",
          "type": "tuple[]"
        }
      ],
      "stateMutability": "view",
      "type": "function"
    },
    {
      "inputs": [
        {
          "internalType": "address",
          "name": "_seller",
          "type": "address"
        }
      ],
      "name": "getMyCars",
      "outputs": [
        {
          "components": [
            {
              "internalType": "uint256",
              "name": "id",
              "type": "uint256"
            },
            {
              "internalType": "string",
              "name": "make",
              "type": "string"
            },
            {
              "internalType": "string",
              "name": "model",
              "type": "string"
            },
            {
              "internalType": "uint256",
              "name": "year",
              "type": "uint256"
            },
            {
              "internalType": "uint256",
              "name": "price",
              "type": "uint256"
            },
            {
              "internalType": "string",
              "name": "imageUrl",
              "type": "string"
            },
            {
              "internalType": "address payable",
              "name": "seller",
              "type": "address"
            },
            {
              "internalType": "address",
              "name": "buyer",
              "type": "address"
            },
            {
              "internalType": "bool",
              "name": "sold",
              "type": "bool"
            }
          ],
          "internalType": "struct CarMarketplace.Car[]",
          "name": "",
          "type": "tuple[]"
        }
      ],
      "stateMutability": "view",
      "type": "function"
    },
    {
      "inputs": [
        {
          "internalType": "string",
          "name": "_make",
          "type": "string"
        },
        {
          "internalType": "string",
          "name": "_model",
          "type": "string"
        },
        {
          "internalType": "uint256",
          "name": "_year",
          "type": "uint256"
        },
        {
          "internalType": "uint256",
          "name": "_price",
          "type": "uint256"
        },
        {
          "internalType": "string",
          "name": "_imageUrl",
          "type": "string"
        }
      ],
      "name": "listCar",
      "outputs": [],
      "stateMutability": "nonpayable",
      "type": "function"
    }
  ],
  "bytecode": "0x6080604052348015600f57600080fd5b5061220c8061001f6000396000f3fe6080604052600436106100555760003560e01c806327f5fd441461005a578063297a1f5614610097578063480019c9146100c25780634af8b07d146100eb5780636c23106014610128578063f7746e3614610144575b600080fd5b34801561006657600080fd5b50610081600480360381019061007c919061139b565b610189565b60405161008e9190611677565b60405180910390f35b3480156100a357600080fd5b506100ac610587565b6040516100b991906116a8565b60405180910390f35b3480156100ce57600080fd5b506100e960048036038101906100e49190611754565b61058d565b005b3480156100f757600080fd5b50610112600480360381019061010d919061185c565b6108f9565b60405161011f9190611677565b60405180910390f35b610142600480360381019061013d9190611889565b610d6d565b005b34801561015057600080fd5b5061016b60048036038101906101669190611889565b6110ac565b6040516101809998979695949392919061192d565b60405180910390f35b6060600080600190505b60015481116101eb5783151560008083815260200190815260200160002060070160149054906101000a900460ff161515036101d85781806101d4906119fe565b9250505b80806101e3906119fe565b915050610193565b5060008167ffffffffffffffff81111561020857610207611a46565b5b60405190808252806020026020018201604052801561024157816020015b61022e6112df565b8152602001906001900390816102265790505b509050600080600190505b600154811161057b5785151560008083815260200190815260200160002060070160149054906101000a900460ff161515036105685760008082815260200190815260200160002060405180610120016040529081600082015481526020016001820180546102ba90611aa4565b80601f01602080910402602001604051908101604052809291908181526020018280546102e690611aa4565b80156103335780601f1061030857610100808354040283529160200191610333565b820191906000526020600020905b81548152906001019060200180831161031657829003601f168201915b5050505050815260200160028201805461034c90611aa4565b80601f016020809104026020016040519081016040528092919081815260200182805461037890611aa4565b80156103c55780601f1061039a576101008083540402835291602001916103c5565b820191906000526020600020905b8154815290600101906020018083116103a857829003601f168201915b5050505050815260200160038201548152602001600482015481526020016005820180546103f290611aa4565b80601f016020809104026020016040519081016040528092919081815260200182805461041e90611aa4565b801561046b5780601f106104405761010080835404028352916020019161046b565b820191906000526020600020905b81548152906001019060200180831161044e57829003601f168201915b505050505081526020016006820160009054906101000a900473ffffffffffffffffffffffffffffffffffffffff1673ffffffffffffffffffffffffffffffffffffffff1673ffffffffffffffffffffffffffffffffffffffff1681526020016007820160009054906101000a900473ffffffffffffffffffffffffffffffffffffffff1673ffffffffffffffffffffffffffffffffffffffff1673ffffffffffffffffffffffffffffffffffffffff1681526020016007820160149054906101000a900460ff16151515158152505083838151811061054e5761054d611ad5565b5b60200260200101819052508180610564906119fe565b9250505b8080610573906119fe565b91505061024c565b50819350505050919050565b60015481565b600083116105d0576040517f08c379a00000000000000000000000000000000000000000000000000000000081526004016105c790611b50565b60405180910390fd5b60008282905011610616576040517f08c379a000000000000000000000000000000000000000000000000000000000815260040161060d90611bbc565b60405180910390fd5b60016000815480929190610629906119fe565b9190505550604051806101200160405280600154815260200189898080601f016020809104026020016040519081016040528093929190818152602001838380828437600081840152601f19601f82011690508083019250505050505050815260200187878080601f016020809104026020016040519081016040528093929190818152602001838380828437600081840152601f19601f82011690508083019250505050505050815260200185815260200184815260200183838080601f016020809104026020016040519081016040528093929190818152602001838380828437600081840152601f19601f8201169050808301925050505050505081526020013373ffffffffffffffffffffffffffffffffffffffff168152602001600073ffffffffffffffffffffffffffffffffffffffff16815260200160001515815250600080600154815260200190815260200160002060008201518160000155602082015181600101908161079f9190611d88565b5060408201518160020190816107b59190611d88565b50606082015181600301556080820151816004015560a08201518160050190816107df9190611d88565b5060c08201518160060160006101000a81548173ffffffffffffffffffffffffffffffffffffffff021916908373ffffffffffffffffffffffffffffffffffffffff16021790555060e08201518160070160006101000a81548173ffffffffffffffffffffffffffffffffffffffff021916908373ffffffffffffffffffffffffffffffffffffffff1602179055506101008201518160070160146101000a81548160ff0219169083151502179055509050503373ffffffffffffffffffffffffffffffffffffffff166001547f18b83c4d1e3f0600d199de9006f3bb9ba21145ed0796e0ba1f6d18ce957cda3b8a8a8a8a8989896040516108e79796959493929190611e96565b60405180910390a35050505050505050565b6060600080600190505b6001548111610996578373ffffffffffffffffffffffffffffffffffffffff1660008083815260200190815260200160002060060160009054906101000a900473ffffffffffffffffffffffffffffffffffffffff1673ffffffffffffffffffffffffffffffffffffffff160361098357818061097f906119fe565b9250505b808061098e906119fe565b915050610903565b5060008167ffffffffffffffff8111156109b3576109b2611a46565b5b6040519080825280602002602001820160405280156109ec57816020015b6109d96112df565b8152602001906001900390816109d15790505b509050600080600190505b6001548111610d61578573ffffffffffffffffffffffffffffffffffffffff1660008083815260200190815260200160002060060160009054906101000a900473ffffffffffffffffffffffffffffffffffffffff1673ffffffffffffffffffffffffffffffffffffffff1603610d4e576000808281526020019081526020016000206040518061012001604052908160008201548152602001600182018054610aa090611aa4565b80601f0160208091040260200160405190810160405280929190818152602001828054610acc90611aa4565b8015610b195780601f10610aee57610100808354040283529160200191610b19565b820191906000526020600020905b815481529060010190602001808311610afc57829003601f168201915b50505050508152602001600282018054610b3290611aa4565b80601f0160208091040260200160405190810160405280929190818152602001828054610b5e90611aa4565b8015610bab5780601f10610b8057610100808354040283529160200191610bab565b820191906000526020600020905b815481529060010190602001808311610b8e57829003601f168201915b505050505081526020016003820154815260200160048201548152602001600582018054610bd890611aa4565b80601f0160208091040260200160405190810160405280929190818152602001828054610c0490611aa4565b8015610c515780601f10610c2657610100808354040283529160200191610c51565b820191906000526020600020905b815481529060010190602001808311610c3457829003601f168201915b505050505081526020016006820160009054906101000a900473ffffffffffffffffffffffffffffffffffffffff1673ffffffffffffffffffffffffffffffffffffffff1673ffffffffffffffffffffffffffffffffffffffff1681526020016007820160009054906101000a900473ffffffffffffffffffffffffffffffffffffffff1673ffffffffffffffffffffffffffffffffffffffff1673ffffffffffffffffffffffffffffffffffffffff1681526020016007820160149054906101000a900460ff161515151581525050838381518110610d3457610d33611ad5565b5b60200260200101819052508180610d4a906119fe565b9250505b8080610d59906119fe565b9150506109f7565b50819350505050919050565b60008060008381526020019081526020016000209050600082118015610d9557506001548211155b610dd4576040517f08c379a0000000000000000000000000000000000000000000000000000000008152600401610dcb90611f42565b60405180910390fd5b8060070160149054906101000a900460ff1615610e26576040517f08c379a0000000000000000000000000000000000000000000000000000000008152600401610e1d90611fae565b60405180910390fd5b8060060160009054906101000a900473ffffffffffffffffffffffffffffffffffffffff1673ffffffffffffffffffffffffffffffffffffffff163373ffffffffffffffffffffffffffffffffffffffff1603610eb8576040517f08c379a0000000000000000000000000000000000000000000000000000000008152600401610eaf9061201a565b60405180910390fd5b80600401543414610efe576040517f08c379a0000000000000000000000000000000000000000000000000000000008152600401610ef590612086565b60405180910390fd5b338160070160006101000a81548173ffffffffffffffffffffffffffffffffffffffff021916908373ffffffffffffffffffffffffffffffffffffffff16021790555060018160070160146101000a81548160ff02191690831515021790555060008160060160009054906101000a900473ffffffffffffffffffffffffffffffffffffffff1673ffffffffffffffffffffffffffffffffffffffff1634604051610fa8906120d7565b60006040518083038185875af1925050503d8060008114610fe5576040519150601f19603f3d011682016040523d82523d6000602084013e610fea565b606091505b505090508061102e576040517f08c379a000000000000000000000000000000000000000000000000000000000815260040161102590612138565b60405180910390fd5b3373ffffffffffffffffffffffffffffffffffffffff16837f8205a71867f7292bcef9e53d4774758d6173b03f63017dec9a03a6664b429dc58460060160009054906101000a900473ffffffffffffffffffffffffffffffffffffffff16856004015460405161109f9291906121ad565b60405180910390a3505050565b60006020528060005260406000206000915090508060000154908060010180546110d590611aa4565b80601f016020809104026020016040519081016040528092919081815260200182805461110190611aa4565b801561114e5780601f106111235761010080835404028352916020019161114e565b820191906000526020600020905b81548152906001019060200180831161113157829003601f168201915b50505050509080600201805461116390611aa4565b80601f016020809104026020016040519081016040528092919081815260200182805461118f90611aa4565b80156111dc5780601f106111b1576101008083540402835291602001916111dc565b820191906000526020600020905b8154815290600101906020018083116111bf57829003601f168201915b5050505050908060030154908060040154908060050180546111fd90611aa4565b80601f016020809104026020016040519081016040528092919081815260200182805461122990611aa4565b80156112765780601f1061124b57610100808354040283529160200191611276565b820191906000526020600020905b81548152906001019060200180831161125957829003601f168201915b5050505050908060060160009054906101000a900473ffffffffffffffffffffffffffffffffffffffff16908060070160009054906101000a900473ffffffffffffffffffffffffffffffffffffffff16908060070160149054906101000a900460ff16905089565b604051806101200160405280600081526020016060815260200160608152602001600081526020016000815260200160608152602001600073ffffffffffffffffffffffffffffffffffffffff168152602001600073ffffffffffffffffffffffffffffffffffffffff1681526020016000151581525090565b600080fd5b600080fd5b60008115159050919050565b61137881611363565b811461138357600080fd5b50565b6000813590506113958161136f565b92915050565b6000602082840312156113b1576113b0611359565b5b60006113bf84828501611386565b91505092915050565b600081519050919050565b600082825260208201905092915050565b6000819050602082019050919050565b6000819050919050565b611407816113f4565b82525050565b600081519050919050565b600082825260208201905092915050565b60005b8381101561144757808201518184015260208101905061142c565b60008484015250505050565b6000601f19601f8301169050919050565b600061146f8261140d565b6114798185611418565b9350611489818560208601611429565b61149281611453565b840191505092915050565b600073ffffffffffffffffffffffffffffffffffffffff82169050919050565b60006114c88261149d565b9050919050565b6114d8816114bd565b82525050565b60006114e98261149d565b9050919050565b6114f9816114de565b82525050565b61150881611363565b82525050565b60006101208301600083015161152760008601826113fe565b506020830151848203602086015261153f8282611464565b915050604083015184820360408601526115598282611464565b915050606083015161156e60608601826113fe565b50608083015161158160808601826113fe565b5060a083015184820360a08601526115998282611464565b91505060c08301516115ae60c08601826114cf565b5060e08301516115c160e08601826114f0565b506101008301516115d66101008601826114ff565b508091505092915050565b60006115ed838361150e565b905092915050565b6000602082019050919050565b600061160d826113c8565b61161781856113d3565b935083602082028501611629856113e4565b8060005b85811015611665578484038952815161164685826115e1565b9450611651836115f5565b925060208a0199505060018101905061162d565b50829750879550505050505092915050565b600060208201905081810360008301526116918184611602565b905092915050565b6116a2816113f4565b82525050565b60006020820190506116bd6000830184611699565b92915050565b600080fd5b600080fd5b600080fd5b60008083601f8401126116e8576116e76116c3565b5b8235905067ffffffffffffffff811115611705576117046116c8565b5b602083019150836001820283011115611721576117206116cd565b5b9250929050565b611731816113f4565b811461173c57600080fd5b50565b60008135905061174e81611728565b92915050565b60008060008060008060008060a0898b03121561177457611773611359565b5b600089013567ffffffffffffffff8111156117925761179161135e565b5b61179e8b828c016116d2565b9850985050602089013567ffffffffffffffff8111156117c1576117c061135e565b5b6117cd8b828c016116d2565b965096505060406117e08b828c0161173f565b94505060606117f18b828c0161173f565b935050608089013567ffffffffffffffff8111156118125761181161135e565b5b61181e8b828c016116d2565b92509250509295985092959890939650565b611839816114de565b811461184457600080fd5b50565b60008135905061185681611830565b92915050565b60006020828403121561187257611871611359565b5b600061188084828501611847565b91505092915050565b60006020828403121561189f5761189e611359565b5b60006118ad8482850161173f565b91505092915050565b600082825260208201905092915050565b60006118d28261140d565b6118dc81856118b6565b93506118ec818560208601611429565b6118f581611453565b840191505092915050565b611909816114bd565b82525050565b611918816114de565b82525050565b61192781611363565b82525050565b600061012082019050611943600083018c611699565b8181036020830152611955818b6118c7565b90508181036040830152611969818a6118c7565b90506119786060830189611699565b6119856080830188611699565b81810360a083015261199781876118c7565b90506119a660c0830186611900565b6119b360e083018561190f565b6119c161010083018461191e565b9a9950505050505050505050565b7f4e487b7100000000000000000000000000000000000000000000000000000000600052601160045260246000fd5b6000611a09826113f4565b91507fffffffffffffffffffffffffffffffffffffffffffffffffffffffffffffffff8203611a3b57611a3a6119cf565b5b600182019050919050565b7f4e487b7100000000000000000000000000000000000000000000000000000000600052604160045260246000fd5b7f4e487b7100000000000000000000000000000000000000000000000000000000600052602260045260246000fd5b60006002820490506001821680611abc57607f821691505b602082108103611acf57611ace611a75565b5b50919050565b7f4e487b7100000000000000000000000000000000000000000000000000000000600052603260045260246000fd5b7f5072696365206d757374206265206d6f7265207468616e203000000000000000600082015250565b6000611b3a6019836118b6565b9150611b4582611b04565b602082019050919050565b60006020820190508181036000830152611b6981611b2d565b9050919050565b7f496d6167652055524c2072657175697265640000000000000000000000000000600082015250565b6000611ba66012836118b6565b9150611bb182611b70565b602082019050919050565b60006020820190508181036000830152611bd581611b99565b9050919050565b60008190508160005260206000209050919050565b60006020601f8301049050919050565b600082821b905092915050565b600060088302611c3e7fffffffffffffffffffffffffffffffffffffffffffffffffffffffffffffffff82611c01565b611c488683611c01565b95508019841693508086168417925050509392505050565b6000819050919050565b6000611c85611c80611c7b846113f4565b611c60565b6113f4565b9050919050565b6000819050919050565b611c9f83611c6a565b611cb3611cab82611c8c565b848454611c0e565b825550505050565b600090565b611cc8611cbb565b611cd3818484611c96565b505050565b5b81811015611cf757611cec600082611cc0565b600181019050611cd9565b5050565b601f821115611d3c57611d0d81611bdc565b611d1684611bf1565b81016020851015611d25578190505b611d39611d3185611bf1565b830182611cd8565b50505b505050565b600082821c905092915050565b6000611d5f60001984600802611d41565b1980831691505092915050565b6000611d788383611d4e565b9150826002028217905092915050565b611d918261140d565b67ffffffffffffffff811115611daa57611da9611a46565b5b611db48254611aa4565b611dbf828285611cfb565b600060209050601f831160018114611df25760008415611de0578287015190505b611dea8582611d6c565b865550611e52565b601f198416611e0086611bdc565b60005b82811015611e2857848901518255600182019150602085019450602081019050611e03565b86831015611e455784890151611e41601f891682611d4e565b8355505b6001600288020188555050505b505050505050565b82818337600083830152505050565b6000611e7583856118b6565b9350611e82838584611e5a565b611e8b83611453565b840190509392505050565b60006080820190508181036000830152611eb181898b611e69565b90508181036020830152611ec6818789611e69565b9050611ed56040830186611699565b8181036060830152611ee8818486611e69565b905098975050505050505050565b7f43617220646f6573206e6f742065786973740000000000000000000000000000600082015250565b6000611f2c6012836118b6565b9150611f3782611ef6565b602082019050919050565b60006020820190508181036000830152611f5b81611f1f565b9050919050565b7f43617220616c726561647920736f6c6400000000000000000000000000000000600082015250565b6000611f986010836118b6565b9150611fa382611f62565b602082019050919050565b60006020820190508181036000830152611fc781611f8b565b9050919050565b7f53656c6c65722063616e27742062757920636172000000000000000000000000600082015250565b60006120046014836118b6565b915061200f82611fce565b602082019050919050565b6000602082019050818103600083015261203381611ff7565b9050919050565b7f53656e642065786163742063617220707269636520616d6f756e740000000000600082015250565b6000612070601b836118b6565b915061207b8261203a565b602082019050919050565b6000602082019050818103600083015261209f81612063565b9050919050565b600081905092915050565b50565b60006120c16000836120a6565b91506120cc826120b1565b600082019050919050565b60006120e2826120b4565b9150819050919050565b7f5472616e73666572204661696c65640000000000000000000000000000000000600082015250565b6000612122600f836118b6565b915061212d826120ec565b602082019050919050565b6000602082019050818103600083015261215181612115565b9050919050565b600061217361216e6121698461149d565b611c60565b61149d565b9050919050565b600061218582612158565b9050919050565b60006121978261217a565b9050919050565b6121a78161218c565b82525050565b60006040820190506121c2600083018561219e565b6121cf6020830184611699565b939250505056fea2646970667358221220cf6dabfd8a1d8231c3f99e395b8ecda984191385d922333221d52ab970e363f064736f6c634300081e0033",
  "linkReferences": {},
  "deployedLinkReferences": {}
}